{"abi":[{"type":"constructor","inputs":[{"name":"_worldIdRouter","type":"address","internalType":"contract IWorldID"}],"stateMutability":"nonpayable"},{"type":"function","name":"GROUP_ID","inputs":[],"outputs":[{"name":"","type":"uint256","internalType":"uint256"}],"stateMutability":"view"},{"type":"function","name":"addTrial","inputs":[{"name":"t","type":"tuple","internalType":"struct TrialRegistrar.Trial","components":[{"name":"id","type":"bytes32","internalType":"bytes32"},{"name":"maxRedemptions","type":"uint256","internalType":"uint256"},{"name":"currentRedemptions","type":"uint256","internalType":"uint256"},{"name":"start","type":"uint64","internalType":"uint64"},{"name":"end","type":"uint64","internalType":"uint64"}]}],"outputs":[],"stateMutability":"nonpayable"},{"type":"function","name":"addressRegistered","inputs":[{"name":"","type":"address","internalType":"address"}],"outputs":[{"name":"","type":"bool","internalType":"bool"}],"stateMutability":"view"},{"type":"function","name":"nullifierHashes","inputs":[{"name":"","type":"uint256","internalType":"uint256"}],"outputs":[{"name":"","type":"bool","internalType":"bool"}],"stateMutability":"view"},{"type":"function","name":"redeemTrial","inputs":[{"name":"index","type":"uint256","internalType":"uint256"},{"name":"recipient","type":"address","internalType":"address"}],"outputs":[],"stateMutability":"nonpayable"},{"type":"function","name":"registerRecipient","inputs":[{"name":"root","type":"uint256","internalType":"uint256"},{"name":"signal","type":"address","internalType":"address"},{"name":"signalHash","type":"uint256","internalType":"uint256"},{"name":"nullifierHash","type":"uint256","internalType":"uint256"},{"name":"externalNullifierHash","type":"uint256","internalType":"uint256"},{"name":"proof","type":"uint256[8]","internalType":"uint256[8]"}],"outputs":[],"stateMutability":"nonpayable"},{"type":"function","name":"trials","inputs":[{"name":"","type":"uint256","internalType":"uint256"}],"outputs":[{"name":"id","type":"bytes32","internalType":"bytes32"},{"name":"maxRedemptions","type":"uint256","internalType":"uint256"},{"name":"currentRedemptions","type":"uint256","internalType":"uint256"},{"name":"start","type":"uint64","internalType":"uint64"},{"name":"end","type":"uint64","internalType":"uint64"}],"stateMutability":"view"},{"type":"function","name":"worldIdRouter","inputs":[],"outputs":[{"name":"","type":"address","internalType":"contract IWorldID"}],"stateMutability":"view"},{"type":"event","name":"TrialClaimed","inputs":[{"name":"user","type":"address","indexed":false,"internalType":"address"},{"name":"id","type":"bytes32","indexed":false,"internalType":"bytes32"}],"anonymous":false},{"type":"error","name":"InvalidNullifier","inputs":[]},{"type":"error","name":"NoRemainingRedemptions","inputs":[]}],"bytecode":{"object":"0x60a060405234801561000f575f5ffd5b5060405161135f38038061135f833981810160405281019061003191906100da565b8073ffffffffffffffffffffffffffffffffffffffff1660808173ffffffffffffffffffffffffffffffffffffffff168152505050610105565b5f5ffd5b5f73ffffffffffffffffffffffffffffffffffffffff82169050919050565b5f6100988261006f565b9050919050565b5f6100a98261008e565b9050919050565b6100b98161009f565b81146100c3575f5ffd5b50565b5f815190506100d4816100b0565b92915050565b5f602082840312156100ef576100ee61006b565b5b5f6100fc848285016100c6565b91505092915050565b60805161123b6101245f395f81816105f60152610790015261123b5ff3fe608060405234801561000f575f5ffd5b5060043610610086575f3560e01c8063784313c211610059578063784313c2146101105780639d7809b51461012c5780639f50b66d1461015c578063cf36002d1461017a57610086565b8063169b485f1461008a5780631f79a1e9146100a65780634dd9c0b5146100d65780636f4ea07c146100f4575b5f5ffd5b6100a4600480360381019061009f91906108da565b6101ae565b005b6100c060048036038101906100bb9190610918565b610395565b6040516100cd919061095d565b60405180910390f35b6100de6103b1565b6040516100eb9190610985565b60405180910390f35b61010e60048036038101906101099190610b23565b6103b6565b005b61012a60048036038101906101259190610b73565b6105a0565b005b61014660048036038101906101419190610bfd565b610771565b604051610153919061095d565b60405180910390f35b61016461078e565b6040516101719190610c83565b60405180910390f35b610194600480360381019061018f9190610918565b6107b2565b6040516101a5959493929190610cba565b60405180910390f35b5f60025f8481526020019081526020015f209050806003015f9054906101000a900467ffffffffffffffff1667ffffffffffffffff164211801561021357508060030160089054906101000a900467ffffffffffffffff1667ffffffffffffffff1642105b610252576040517f08c379a000000000000000000000000000000000000000000000000000000000815260040161024990610d65565b60405180910390fd5b8060010154600182600201546102689190610db0565b11156102a9576040517f08c379a00000000000000000000000000000000000000000000000000000000081526004016102a090610e2d565b60405180910390fd5b6001151560015f8473ffffffffffffffffffffffffffffffffffffffff1673ffffffffffffffffffffffffffffffffffffffff1681526020019081526020015f205f9054906101000a900460ff16151514610339576040517f08c379a000000000000000000000000000000000000000000000000000000000815260040161033090610e95565b60405180910390fd5b6001816002015f82825461034d9190610db0565b925050819055507fa06ae0e40b4e5af197b4e7955d7470e370c30bd0256fe96f5a555cedde1635df82825f0154604051610388929190610ec2565b60405180910390a1505050565b5f602052805f5260405f205f915054906101000a900460ff1681565b600181565b5f5f1b815f0151036103fd576040517f08c379a00000000000000000000000000000000000000000000000000000000081526004016103f490610f33565b60405180910390fd5b5f816020015111610443576040517f08c379a000000000000000000000000000000000000000000000000000000000815260040161043a90610f9b565b60405180910390fd5b5f816040015114610489576040517f08c379a000000000000000000000000000000000000000000000000000000000815260040161048090611003565b60405180910390fd5b610e10816080015161049b9190611021565b67ffffffffffffffff16816060015167ffffffffffffffff16106104f4576040517f08c379a00000000000000000000000000000000000000000000000000000000081526004016104eb90610d65565b60405180910390fd5b600160035f8282546105069190610db0565b925050819055508060025f60035481526020019081526020015f205f820151815f015560208201518160010155604082015181600201556060820151816003015f6101000a81548167ffffffffffffffff021916908367ffffffffffffffff16021790555060808201518160030160086101000a81548167ffffffffffffffff021916908367ffffffffffffffff16021790555090505050565b5f5f8481526020019081526020015f205f9054906101000a900460ff16156105f4576040517f5d904cb200000000000000000000000000000000000000000000000000000000815260040160405180910390fd5b7f000000000000000000000000000000000000000000000000000000000000000073ffffffffffffffffffffffffffffffffffffffff16633bc778e3876001878787876040518763ffffffff1660e01b815260040161065896959493929190611076565b5f6040518083038186803b15801561066e575f5ffd5b505afa158015610680573d5f5f3e3d5ffd5b505050506106ac85604051602001610698919061111b565b60405160208183030381529060405261080b565b84146106ed576040517f08c379a00000000000000000000000000000000000000000000000000000000081526004016106e49061117f565b60405180910390fd5b60015f5f8581526020019081526020015f205f6101000a81548160ff0219169083151502179055506001805f8773ffffffffffffffffffffffffffffffffffffffff1673ffffffffffffffffffffffffffffffffffffffff1681526020019081526020015f205f6101000a81548160ff021916908315150217905550505050505050565b6001602052805f5260405f205f915054906101000a900460ff1681565b7f000000000000000000000000000000000000000000000000000000000000000081565b6002602052805f5260405f205f91509050805f015490806001015490806002015490806003015f9054906101000a900467ffffffffffffffff16908060030160089054906101000a900467ffffffffffffffff16905085565b5f60088260405160200161081f91906111ef565b604051602081830303815290604052805190602001205f1c901c9050919050565b5f604051905090565b5f5ffd5b5f819050919050565b61085f8161084d565b8114610869575f5ffd5b50565b5f8135905061087a81610856565b92915050565b5f73ffffffffffffffffffffffffffffffffffffffff82169050919050565b5f6108a982610880565b9050919050565b6108b98161089f565b81146108c3575f5ffd5b50565b5f813590506108d4816108b0565b92915050565b5f5f604083850312156108f0576108ef610849565b5b5f6108fd8582860161086c565b925050602061090e858286016108c6565b9150509250929050565b5f6020828403121561092d5761092c610849565b5b5f61093a8482850161086c565b91505092915050565b5f8115159050919050565b61095781610943565b82525050565b5f6020820190506109705f83018461094e565b92915050565b61097f8161084d565b82525050565b5f6020820190506109985f830184610976565b92915050565b5f5ffd5b5f601f19601f8301169050919050565b7f4e487b71000000000000000000000000000000000000000000000000000000005f52604160045260245ffd5b6109e8826109a2565b810181811067ffffffffffffffff82111715610a0757610a066109b2565b5b80604052505050565b5f610a19610840565b9050610a2582826109df565b919050565b5f819050919050565b610a3c81610a2a565b8114610a46575f5ffd5b50565b5f81359050610a5781610a33565b92915050565b5f67ffffffffffffffff82169050919050565b610a7981610a5d565b8114610a83575f5ffd5b50565b5f81359050610a9481610a70565b92915050565b5f60a08284031215610aaf57610aae61099e565b5b610ab960a0610a10565b90505f610ac884828501610a49565b5f830152506020610adb8482850161086c565b6020830152506040610aef8482850161086c565b6040830152506060610b0384828501610a86565b6060830152506080610b1784828501610a86565b60808301525092915050565b5f60a08284031215610b3857610b37610849565b5b5f610b4584828501610a9a565b91505092915050565b5f5ffd5b5f81905082602060080282011115610b6d57610b6c610b4e565b5b92915050565b5f5f5f5f5f5f6101a08789031215610b8e57610b8d610849565b5b5f610b9b89828a0161086c565b9650506020610bac89828a016108c6565b9550506040610bbd89828a0161086c565b9450506060610bce89828a0161086c565b9350506080610bdf89828a0161086c565b92505060a0610bf089828a01610b52565b9150509295509295509295565b5f60208284031215610c1257610c11610849565b5b5f610c1f848285016108c6565b91505092915050565b5f819050919050565b5f610c4b610c46610c4184610880565b610c28565b610880565b9050919050565b5f610c5c82610c31565b9050919050565b5f610c6d82610c52565b9050919050565b610c7d81610c63565b82525050565b5f602082019050610c965f830184610c74565b92915050565b610ca581610a2a565b82525050565b610cb481610a5d565b82525050565b5f60a082019050610ccd5f830188610c9c565b610cda6020830187610976565b610ce76040830186610976565b610cf46060830185610cab565b610d016080830184610cab565b9695505050505050565b5f82825260208201905092915050565b7f496e76616c69642054696d652057696e646f77000000000000000000000000005f82015250565b5f610d4f601383610d0b565b9150610d5a82610d1b565b602082019050919050565b5f6020820190508181035f830152610d7c81610d43565b9050919050565b7f4e487b71000000000000000000000000000000000000000000000000000000005f52601160045260245ffd5b5f610dba8261084d565b9150610dc58361084d565b9250828201905080821115610ddd57610ddc610d83565b5b92915050565b7f4e6f52656d61696e696e67526564656d7074696f6e73000000000000000000005f82015250565b5f610e17601683610d0b565b9150610e2282610de3565b602082019050919050565b5f6020820190508181035f830152610e4481610e0b565b9050919050565b7f696e76616c696420726563697069656e740000000000000000000000000000005f82015250565b5f610e7f601183610d0b565b9150610e8a82610e4b565b602082019050919050565b5f6020820190508181035f830152610eac81610e73565b9050919050565b610ebc8161089f565b82525050565b5f604082019050610ed55f830185610eb3565b610ee26020830184610c9c565b9392505050565b7f496e76616c696420547269616c204944000000000000000000000000000000005f82015250565b5f610f1d601083610d0b565b9150610f2882610ee9565b602082019050919050565b5f6020820190508181035f830152610f4a81610f11565b9050919050565b7f496e76616c6964204d617820526564656d7074696f6e730000000000000000005f82015250565b5f610f85601783610d0b565b9150610f9082610f51565b602082019050919050565b5f6020820190508181035f830152610fb281610f79565b9050919050565b7f496e76616c69642043757272656e7420526564656d7074696f6e7300000000005f82015250565b5f610fed601b83610d0b565b9150610ff882610fb9565b602082019050919050565b5f6020820190508181035f83015261101a81610fe1565b9050919050565b5f61102b82610a5d565b915061103683610a5d565b9250828201905067ffffffffffffffff81111561105657611055610d83565b5b92915050565b82818337505050565b611072610100838361105c565b5050565b5f6101a08201905061108a5f830189610976565b6110976020830188610976565b6110a46040830187610976565b6110b16060830186610976565b6110be6080830185610976565b6110cb60a0830184611065565b979650505050505050565b5f8160601b9050919050565b5f6110ec826110d6565b9050919050565b5f6110fd826110e2565b9050919050565b6111156111108261089f565b6110f3565b82525050565b5f6111268284611104565b60148201915081905092915050565b7f496e76616c6964205369676e616c0000000000000000000000000000000000005f82015250565b5f611169600e83610d0b565b915061117482611135565b602082019050919050565b5f6020820190508181035f8301526111968161115d565b9050919050565b5f81519050919050565b5f81905092915050565b8281835e5f83830152505050565b5f6111c98261119d565b6111d381856111a7565b93506111e38185602086016111b1565b80840191505092915050565b5f6111fa82846111bf565b91508190509291505056fea264697066735822122053ce5e2e89cad3e04c144936e87f3ba5f65b02f08823e6f662963854b4d598da64736f6c63430008230033","linkReferences":{}},"methodIdentifiers":{"GROUP_ID()":"4dd9c0b5","addTrial((bytes32,uint256,uint256,uint64,uint64))":"6f4ea07c","addressRegistered(address)":"9d7809b5","nullifierHashes(uint256)":"1f79a1e9","redeemTrial(uint256,address)":"169b485f","registerRecipient(uint256,address,uint256,uint256,uint256,uint256[8])":"784313c2","trials(uint256)":"cf36002d","worldIdRouter()":"9f50b66d"},"id":16}