{"abi":[{"type":"constructor","inputs":[{"name":"_worldIdRouter","type":"address","internalType":"contract IWorldID"}],"stateMutability":"nonpayable"},{"type":"function","name":"GROUP_ID","inputs":[],"outputs":[{"name":"","type":"uint256","internalType":"uint256"}],"stateMutability":"view"},{"type":"function","name":"addTrial","inputs":[{"name":"t","type":"tuple","internalType":"struct VerifyLegacyV3.Trial","components":[{"name":"id","type":"bytes32","internalType":"bytes32"},{"name":"maxRedemptions","type":"uint256","internalType":"uint256"},{"name":"currentRedemptions","type":"uint256","internalType":"uint256"},{"name":"start","type":"uint64","internalType":"uint64"},{"name":"end","type":"uint64","internalType":"uint64"}]}],"outputs":[],"stateMutability":"nonpayable"},{"type":"function","name":"addressRegistered","inputs":[{"name":"","type":"address","internalType":"address"}],"outputs":[{"name":"","type":"bool","internalType":"bool"}],"stateMutability":"view"},{"type":"function","name":"nullifierHashes","inputs":[{"name":"","type":"uint256","internalType":"uint256"}],"outputs":[{"name":"","type":"bool","internalType":"bool"}],"stateMutability":"view"},{"type":"function","name":"redeemTrial","inputs":[{"name":"index","type":"uint256","internalType":"uint256"},{"name":"recipient","type":"address","internalType":"address"}],"outputs":[],"stateMutability":"nonpayable"},{"type":"function","name":"trials","inputs":[{"name":"","type":"uint256","internalType":"uint256"}],"outputs":[{"name":"id","type":"bytes32","internalType":"bytes32"},{"name":"maxRedemptions","type":"uint256","internalType":"uint256"},{"name":"currentRedemptions","type":"uint256","internalType":"uint256"},{"name":"start","type":"uint64","internalType":"uint64"},{"name":"end","type":"uint64","internalType":"uint64"}],"stateMutability":"view"},{"type":"function","name":"verifyLegacyAndExecute","inputs":[{"name":"root","type":"uint256","internalType":"uint256"},{"name":"signalHash","type":"uint256","internalType":"uint256"},{"name":"nullifierHash","type":"uint256","internalType":"uint256"},{"name":"externalNullifierHash","type":"uint256","internalType":"uint256"},{"name":"proof","type":"uint256[8]","internalType":"uint256[8]"}],"outputs":[],"stateMutability":"nonpayable"},{"type":"function","name":"worldIdRouter","inputs":[],"outputs":[{"name":"","type":"address","internalType":"contract IWorldID"}],"stateMutability":"view"},{"type":"event","name":"TrialClaimed","inputs":[{"name":"user","type":"address","indexed":false,"internalType":"address"},{"name":"id","type":"bytes32","indexed":false,"internalType":"bytes32"}],"anonymous":false},{"type":"error","name":"InvalidNullifier","inputs":[]},{"type":"error","name":"NoRemainingRedemptions","inputs":[]}],"bytecode":{"object":"0x60a060405234801561000f575f5ffd5b50604051610ece380380610ece833981810160405281019061003191906100da565b8073ffffffffffffffffffffffffffffffffffffffff1660808173ffffffffffffffffffffffffffffffffffffffff168152505050610105565b5f5ffd5b5f73ffffffffffffffffffffffffffffffffffffffff82169050919050565b5f6100988261006f565b9050919050565b5f6100a98261008e565b9050919050565b6100b98161009f565b81146100c3575f5ffd5b50565b5f815190506100d4816100b0565b92915050565b5f602082840312156100ef576100ee61006b565b5b5f6100fc848285016100c6565b91505092915050565b608051610daa6101245f395f818161020401526105e80152610daa5ff3fe608060405234801561000f575f5ffd5b5060043610610086575f3560e01c80636f4ea07c116100595780636f4ea07c146101105780639d7809b51461012c5780639f50b66d1461015c578063cf36002d1461017a57610086565b8063083cec871461008a578063169b485f146100a65780631f79a1e9146100c25780634dd9c0b5146100f2575b5f5ffd5b6100a4600480360381019061009f91906106c8565b6101ae565b005b6100c060048036038101906100bb919061079a565b610315565b005b6100dc60048036038101906100d791906107d8565b6104fc565b6040516100e9919061081d565b60405180910390f35b6100fa610518565b6040516101079190610845565b60405180910390f35b61012a600480360381019061012591906109e3565b61051d565b005b61014660048036038101906101419190610a0e565b6105c9565b604051610153919061081d565b60405180910390f35b6101646105e6565b6040516101719190610a94565b60405180910390f35b610194600480360381019061018f91906107d8565b61060a565b6040516101a5959493929190610acb565b60405180910390f35b5f5f8481526020019081526020015f205f9054906101000a900460ff1615610202576040517f5d904cb200000000000000000000000000000000000000000000000000000000815260040160405180910390fd5b7f000000000000000000000000000000000000000000000000000000000000000073ffffffffffffffffffffffffffffffffffffffff16633bc778e3866001878787876040518763ffffffff1660e01b815260040161026696959493929190610b36565b5f6040518083038186803b15801561027c575f5ffd5b505afa15801561028e573d5f5f3e3d5ffd5b5050505060015f5f8581526020019081526020015f205f6101000a81548160ff0219169083151502179055506001805f8673ffffffffffffffffffffffffffffffffffffffff1673ffffffffffffffffffffffffffffffffffffffff1681526020019081526020015f205f6101000a81548160ff0219169083151502179055505050505050565b5f60025f8481526020019081526020015f209050806003015f9054906101000a900467ffffffffffffffff1667ffffffffffffffff164211801561037a57508060030160089054906101000a900467ffffffffffffffff1667ffffffffffffffff1642105b6103b9576040517f08c379a00000000000000000000000000000000000000000000000000000000081526004016103b090610bf0565b60405180910390fd5b8060010154600182600201546103cf9190610c3b565b1115610410576040517f08c379a000000000000000000000000000000000000000000000000000000000815260040161040790610cb8565b60405180910390fd5b6001151560015f8473ffffffffffffffffffffffffffffffffffffffff1673ffffffffffffffffffffffffffffffffffffffff1681526020019081526020015f205f9054906101000a900460ff161515146104a0576040517f08c379a000000000000000000000000000000000000000000000000000000000815260040161049790610d20565b60405180910390fd5b6001816002015f8282546104b49190610c3b565b925050819055507fa06ae0e40b4e5af197b4e7955d7470e370c30bd0256fe96f5a555cedde1635df82825f01546040516104ef929190610d4d565b60405180910390a1505050565b5f602052805f5260405f205f915054906101000a900460ff1681565b600181565b600160035f82825461052f9190610c3b565b925050819055508060025f60035481526020019081526020015f205f820151815f015560208201518160010155604082015181600201556060820151816003015f6101000a81548167ffffffffffffffff021916908367ffffffffffffffff16021790555060808201518160030160086101000a81548167ffffffffffffffff021916908367ffffffffffffffff16021790555090505050565b6001602052805f5260405f205f915054906101000a900460ff1681565b7f000000000000000000000000000000000000000000000000000000000000000081565b6002602052805f5260405f205f91509050805f015490806001015490806002015490806003015f9054906101000a900467ffffffffffffffff16908060030160089054906101000a900467ffffffffffffffff16905085565b5f604051905090565b5f5ffd5b5f819050919050565b61068281610670565b811461068c575f5ffd5b50565b5f8135905061069d81610679565b92915050565b5f5ffd5b5f819050826020600802820111156106c2576106c16106a3565b5b92915050565b5f5f5f5f5f61018086880312156106e2576106e161066c565b5b5f6106ef8882890161068f565b95505060206107008882890161068f565b94505060406107118882890161068f565b93505060606107228882890161068f565b9250506080610733888289016106a7565b9150509295509295909350565b5f73ffffffffffffffffffffffffffffffffffffffff82169050919050565b5f61076982610740565b9050919050565b6107798161075f565b8114610783575f5ffd5b50565b5f8135905061079481610770565b92915050565b5f5f604083850312156107b0576107af61066c565b5b5f6107bd8582860161068f565b92505060206107ce85828601610786565b9150509250929050565b5f602082840312156107ed576107ec61066c565b5b5f6107fa8482850161068f565b91505092915050565b5f8115159050919050565b61081781610803565b82525050565b5f6020820190506108305f83018461080e565b92915050565b61083f81610670565b82525050565b5f6020820190506108585f830184610836565b92915050565b5f5ffd5b5f601f19601f8301169050919050565b7f4e487b71000000000000000000000000000000000000000000000000000000005f52604160045260245ffd5b6108a882610862565b810181811067ffffffffffffffff821117156108c7576108c6610872565b5b80604052505050565b5f6108d9610663565b90506108e5828261089f565b919050565b5f819050919050565b6108fc816108ea565b8114610906575f5ffd5b50565b5f81359050610917816108f3565b92915050565b5f67ffffffffffffffff82169050919050565b6109398161091d565b8114610943575f5ffd5b50565b5f8135905061095481610930565b92915050565b5f60a0828403121561096f5761096e61085e565b5b61097960a06108d0565b90505f61098884828501610909565b5f83015250602061099b8482850161068f565b60208301525060406109af8482850161068f565b60408301525060606109c384828501610946565b60608301525060806109d784828501610946565b60808301525092915050565b5f60a082840312156109f8576109f761066c565b5b5f610a058482850161095a565b91505092915050565b5f60208284031215610a2357610a2261066c565b5b5f610a3084828501610786565b91505092915050565b5f819050919050565b5f610a5c610a57610a5284610740565b610a39565b610740565b9050919050565b5f610a6d82610a42565b9050919050565b5f610a7e82610a63565b9050919050565b610a8e81610a74565b82525050565b5f602082019050610aa75f830184610a85565b92915050565b610ab6816108ea565b82525050565b610ac58161091d565b82525050565b5f60a082019050610ade5f830188610aad565b610aeb6020830187610836565b610af86040830186610836565b610b056060830185610abc565b610b126080830184610abc565b9695505050505050565b82818337505050565b610b326101008383610b1c565b5050565b5f6101a082019050610b4a5f830189610836565b610b576020830188610836565b610b646040830187610836565b610b716060830186610836565b610b7e6080830185610836565b610b8b60a0830184610b25565b979650505050505050565b5f82825260208201905092915050565b7f496e76616c69642054696d652057696e646f77000000000000000000000000005f82015250565b5f610bda601383610b96565b9150610be582610ba6565b602082019050919050565b5f6020820190508181035f830152610c0781610bce565b9050919050565b7f4e487b71000000000000000000000000000000000000000000000000000000005f52601160045260245ffd5b5f610c4582610670565b9150610c5083610670565b9250828201905080821115610c6857610c67610c0e565b5b92915050565b7f4e6f52656d61696e696e67526564656d7074696f6e73000000000000000000005f82015250565b5f610ca2601683610b96565b9150610cad82610c6e565b602082019050919050565b5f6020820190508181035f830152610ccf81610c96565b9050919050565b7f696e76616c696420726563697069656e740000000000000000000000000000005f82015250565b5f610d0a601183610b96565b9150610d1582610cd6565b602082019050919050565b5f6020820190508181035f830152610d3781610cfe565b9050919050565b610d478161075f565b82525050565b5f604082019050610d605f830185610d3e565b610d6d6020830184610aad565b939250505056fea2646970667358221220b4110ad1bc553347a7cdd136b472055749fcfa295f4e07c0556602326fff17c564736f6c63430008230033","linkReferences":{}},"methodIdentifiers":{"GROUP_ID()":"4dd9c0b5","addTrial((bytes32,uint256,uint256,uint64,uint64))":"6f4ea07c","addressRegistered(address)":"9d7809b5","nullifierHashes(uint256)":"1f79a1e9","redeemTrial(uint256,address)":"169b485f","trials(uint256)":"cf36002d","verifyLegacyAndExecute(uint256,uint256,uint256,uint256,uint256[8])":"083cec87","worldIdRouter()":"9f50b66d"},"id":22}